:100000000C943A000C940E020C940E020C940E0206
:100010000C940E020C940E020C940E020C940E0220
:100020000C940E020C940E020C940E020C940E0210
:100030000C940E020C940E020C940E020C940E0200
:100040000C940E020C940E020C940E020C940E02F0
:100050000C940E020C940E020C940E020C940E02E0
:100060000C940E020C940E020100011000042A01EF
:100070001001128011241FBECFEFD8E0DEBFCDBF2C
:10008000E8E6F0E040E017C0B591A59135912591E3
:10009000059107FD0CC095918591EF01F92FE82F8F
:1000A00005900D92A217B307D9F7FE0104C01D9267
:1000B000A217B307E1F7E437F40731F70E946400B1
:0800C0000C94FB01F894FFCF42
:1000C8000E9406020E94CA010E940B02C12CD12C78
:1000D80076010F2EF8EE8F2EF3E09F2EA12CB12C77
:1000E800F02DCAE28FE99FE00197F1F700C0000008
:1000F8009FEFC91AD90AE90AF90A0E94E30188237D
:1001080069F0C1142DE7D206E104F10438F40F2E8A
:10011800C12CFDE7DF2EE12CF12CF02D81E1C81672
:1001280084EAD806E104F104F8F461E082E00E9470
:10013800AD0161E083E00E94AD0160E080E00E94D3
:10014800AD0160E081E00E94AD0160E084E00E94C2
:10015800AD01C701B601A50194010E948B018C2F46
:10016800821B0E944E01BECF99ECC9169FEAD906A0
:10017800E104F104A8F460E082E00E94AD0161E0CE
:1001880083E00E94AD0160E080E00E94AD0161E083
:1001980081E00E94AD0160E084E00E94AD01A2CF41
:1001A80029EAC2162EEDD206E104F104A8F460E0B3
:1001B80082E00E94AD0160E083E00E94AD0161E051
:1001C80080E00E94AD0160E081E00E94AD0161E045
:1001D80084E00E94AD0186CF81E6C8168AEED80673
:1001E800E104F10408F07ECF60E084E00E94AD01F4
:1001F80061E083E00E94AD019FEF29E688E191501C
:1002080020408040E1F700C0000060E083E00E94E9
:10021800AD019FEF29E688E1915020408040E1F749
:1002280000C0000061E083E00E94AD019FEF29E675
:1002380088E1915020408040E1F700C0000060E074
:1002480083E00E94AD019FEF29E688E191502040AC
:100258008040E1F700C0000061E083E00E94AD014A
:100268009FEF29E688E1915020408040E1F700C0E7
:10027800000060E083E00E94AD019FEF29E688E17D
:10028800915020408040E1F700C00000C12CD12CE3
:04029800760128CFF4
:10029C0090911101911116C029989DEC899F912D77
:1002AC001124969596959695990F292F220F220F2A
:1002BC00920F891BE82FF0E0E050FF4F80818BB943
:1002CC00289A1CC09130D1F428989DEC899FE12D7F
:1002DC001124E695E695E695E99F812D11248695E6
:1002EC0086958695880F982F990F990F890FE81B83
:1002FC00F0E0E050FF4F80818BB9299A8091110179
:0A030C008F5F817080931101089546
:10031600A1E21A2EAA1BBB1BFD010DC0AA1FBB1F03
:10032600EE1FFF1FA217B307E407F50720F0A21B75
:10033600B30BE40BF50B661F771F881F991F1A94E2
:1003460069F760957095809590959B01AC01BD010C
:04035600CF01089536
:10035A00662369F048B121E030E0B90102C0660FB6
:10036A00771F8A95E2F7CB01842B88B9089548B1A3
:10037A0021E030E0B90102C0660F771F8A95E2F7E3
:0A038A00CB018095842388B9089503
:1003940020E030E061E070E047B1CB01022E02C002
:1003A400880F991F0A94E2F7942F982B97B998B164
:1003B4008095892388B92F5F3F4F2530310561F738
:0203C40008959A
:1003C6001C990DC080911001811109C083B18295DD
:1003D600817091E089278093100181E0089583B1AF
:1003E6008295817091E089278093100180E00895BD
:1003F600EC010E9413020E941202CE010E94140216
:06040600CE010E9410026D
:0A040C008FEF8AB98BB9209A08958A
:0604160024982C9A0895C1
:04041C000C9400003C
:040420000E946200D4
:02042400089539
:02042600089537
:02042800089535
:10042A003F065B4F666D7D077F6F777C395E79711A
:00000001FF
